:100000000C945C000C9479000C9479000C947900A9
:100010000C9479000C9479000C9479000C9479007C
:100020000C9479000C9479000C9479000C9479006C
:100030000C9479000C9479000C9479000C9479005C
:100040000C944E040C9479000C9479000C94790073
:100050000C9479000C9479000C9479000C9479003C
:100060000C9479000C9479000C9479000C9479002C
:100070002D2D2D2D2D2D2D2D2D2D2D2D2D2D2D2DB0
:1000800000333A20496E7465726E616C20414443BE
:1000900000323A2042696E61727920636C6F636B43
:1000A00000313A2048656C6C6F20776F726C640089
:1000B00053656C6563743A0011241FBECFEFD0E125
:1000C000DEBFCDBF11E0A0E0B1E0E2E7FBE002C09F
:1000D00005900D92A230B107D9F711E0A2E0B1E08E
:1000E00001C01D92A930B107E1F70E947B000C947A
:1000F000B7050C9400000E9485000E9488030E94AE
:10010000810480E090E00895089508950895089589
:100110002D9A86E08A95F1F72D980895782FEFB7FC
:10012000F89450E440EF36E055B92D9A44B985B1C2
:100130008F6085B983B12D982D9A26E0932F9A95DB
:10014000F1F72D9883FDF0CF8FEF84B975B92D9A13
:10015000822F8A95F1F72D9865B92D9A822F8A956D
:10016000F1F72D98E7FF089578940895682F829508
:100170008F706F700E948E000895282F21502230BA
:1001800068F080E820E06150603108F060E0260F00
:1001900020930201860F0E94B600089530E0C90145
:1001A0000024969587950794969587950794982FA0
:1001B000802D80582295207FE6CF20910201422F8A
:1001C00042954F7050E04E5F5F4F480F511D417098
:1001D000507030E0205F3F4F260F311D2F70307080
:1001E0002F5F842F8F5F622F0E94BD000895809142
:1001F000020182958F708F5F60E00E94BD000895BC
:100200008091020190E00196BC016F7070706F5F89
:1002100095958795959587959595879595958795C6
:100220008F5F0E94BD00089580910201482F50E029
:10023000CA0101979C0197FD13C035952795359507
:100240002795359527953595279560E170E00E94B3
:100250008205682F6F5F822F8F5F0E94BD00089517
:100260009A01225F3F4FE9CF80EC0E94B60080E107
:1002700080930201089580E80E94B6001092020166
:1002800008951092020181E00E94B60008950F9334
:100290001F93182F0FB7F8948A3069F180910201EB
:1002A000803189F18032A9F11A30F9F0143BA1F0C4
:1002B000153BA0F51C35E9F11D3508F043C0183099
:1002C00009F453C01930D9F1812F82958F70806164
:1002D000612F6F70606102C080E163E10E948E0057
:1002E000809102018F5F8093020107FF01C0789423
:1002F0001F910F910895809102018071805F80931A
:100300000201803179F60E9434018091020180322D
:1003100059F60E9441010E943B01C6CF143E61F094
:10032000153EC0F4153B21F11F3D71F68EE162E1EF
:10033000D5CF80E164E1D2CF8EE161E1CFCF80E122
:1003400061E1CCCF1E37D9F3103B09F0BDCF80E17E
:1003500062E1C4CF163F31F01C3F09F0B5CF8FE109
:1003600065E1BCCF8EE16FE1B9CF80E160E1B6CF4E
:1003700080E165E1B3CF0F931F93009102018330B9
:1003800008F081E061E00E94BD0010E080E20E9480
:1003900047011F5F1031D1F700930201602F6F708A
:1003A0006F5F02950F70802F8F5F0E94BD001F91BD
:1003B0000F9108951F93182F662371F4812F8F706A
:1003C0008A3028F0895C0E9447011F910895805D62
:1003D0000E9447011F91089580E30E94470188E72A
:1003E0000E944701EBCF0F931F93082F6623F9F468
:1003F000102F1F70802F82958F708A3060F4805D7F
:100400000E9447011A3060F0812F895C0E944701E9
:100410001F910F910895895C0E9447011A30A0F73F
:10042000812F805D0E9447011F910F91089580E305
:100430000E94470188E70E944701DACF0F931F937C
:10044000CF93DF93EC010097D1F187E2C031D80759
:10045000F0F580E197E26AE070E00E946E05CB0162
:10046000C617D707C0F39B01220F331F220F331F7C
:10047000220F331F880F991F280F391F2230310593
:10048000C8F0C9016AE070E00E946E05162F072FC0
:10049000CE01B9010E946E05612F702F0E946E057A
:1004A000862F805D0E944701812F902F9C01223072
:1004B000310538F7DF91CF911F910F91089580E3B7
:1004C0000E944701DF91CF911F910F91089520EA7B
:1004D00036E8D7CFAF92BF92CF92DF92EF92FF92E2
:1004E0000F931F93CF93DF936B0150E0489F8001E0
:1004F000499F100D589F100D1124C8010E946E05D0
:10050000A62EBB24AC9CC001AD9C900DBC9C900D54
:100510001124081B190B20E030E0C901B80128EEB6
:1005200033E040E050E00E944F05EE24FF24A70195
:1005300096010E949505E901C5010E941E028EE206
:100540000E944701C436D10588F0CE010E941E02E8
:1005500086E50E944701DF91CF911F910F91FF9097
:10056000EF90DF90CF90BF90AF90089580E30E940E
:100570004701CA30D10548F780E30E944701E5CF23
:10058000CF93DF93FC018081882339F0EF010E9433
:100590004701898121968823D1F7DF91CF91089572
:1005A0001F93CF93DF93FC0110811123D9F0EC014D
:1005B00007C0812F0E94470119812196112391F0D4
:1005C00080910201803111F0803299F782958F700D
:1005D0008F5F0E94BB01812F0E94470119812196E4
:1005E000112371F7DF91CF911F9108950F931F93FE
:1005F000CF93DF93182F0E944101012F10E0029545
:100600001295107F1027007F10270115110551F05A
:10061000C0E0D0E08FEF0E944701CC59DF4FC017F8
:10062000D107C0F3DF91CF911F910F910895EF9201
:10063000FF920F931F93CF93DF938C01C0E0D0E024
:10064000F8E8EF2EF3E1FF2EF801EC0FFD1F849187
:10065000882339F4DF91CF911F910F91FF90EF9094
:1006600008950E944701C7010197F1F72196C03212
:10067000D10551F7EFCF8F929F92AF92BF92CF9259
:10068000DF92EF92FF920F931F93CF93DF93912E00
:1006900059016A017B018FB6F894880F880F880F83
:1006A000887380640E94B60088EC90E00197F1F7AF
:1006B00017E0C8ECD0E0802F82958F70602F6F70AC
:1006C000606180610E948E00CE010197F1F7202FBA
:1006D000392DA501B601C70108E00E94D004022F00
:1006E000932E5A016B017C01115028F78FB790E8C7
:1006F0008922882A8FBEDF91CF911F910F91FF90A1
:10070000EF90DF90CF90BF90AF909F908F90089523
:100710000F931F938FEF84B926E930E044EF51E047
:10072000CA010197F1F721503040D1F783E085B934
:100730002D9A96E0892F8A95F1F72D98E8EAF1E64F
:100740003197F1F72D9A892F8A95F1F72D9828E89E
:1007500033E1F9013197F1F72D9A892F8A95F1F755
:100760002D98F9013197F1F782E085B92D9A9A9584
:10077000F1F72D98C9010197F1F788E20E94B600C0
:100780008CE00E94B60084E00E94B6000E94410105
:1007900080E000E010E021E030E045E159E065E173
:1007A00070E00E943B0381E018E025E132E040E088
:1007B00050E060E070E00E943B0382E004E01AE059
:1007C00024E030E040E050E060E070E00E943B0355
:1007D00083E002E014E028E030E040E050E060E038
:1007E00070E00E943B0384E000E010E128E034E088
:1007F00042E051E060E070E00E943B0385E010E0E1
:1008000029E039E049E05EE068E070E00E943B03E7
:100810001F910F910895089880E480937C0087E8E9
:1008200080937A00089580917A00806480937A00A2
:1008300080917A0086FDFCCF20917800409179006C
:10084000942F80E030E0282B392B3093080120933F
:100850000701C90108950895089508950895089518
:100860000895089508950895089584B58E7F84BDF0
:1008700084B5826084BD85B5877F85BD85B585607B
:1008800085BD85B58D7F85BD83EC87BDEEE6F0E047
:100890008081826080837894089508951F920F92DA
:1008A0000FB60F9211240F900FBE0F901F90189546
:1008B00008950895089508958130B1F0813078F059
:1008C000823051F48EEF9FEF9093010180930001ED
:1008D0000E942F040E940B040E94860008950E942B
:1008E00041010E94860008958FEF9FEF90930101D0
:1008F000809300010E942F040E9435040E9486000C
:1009000008951F9310E00E94410180EB90E00E9447
:1009100017030E943401113061F11130C0F481EAF3
:1009200090E00E9417030E9487000E94840081309B
:10093000D1F00E948400843031F10E948400823022
:1009400011F70E948600112349F11150DCCF1230BB
:10095000A9F080E790E00E9417030E9487000E94A0
:100960008400813031F70E948600812F0E945C0450
:10097000CACF81E990E00E941703D5CF81E890E0CB
:100980000E941703D0CF0E948600812F90E001962D
:1009900063E070E00E948205182FB5CF12E0B3CF5C
:1009A000EF92FF920F93DF93CF93CDB7DEB76097AF
:1009B0000FB6F894DEBF0FBECDBFA82F002309F4F9
:1009C00061C07E010894E11CF11C88E0F7011192DE
:1009D0008A95E9F729833A834B835C836D837E8311
:1009E000AF83988780E2801BE82FFF27E7FDF09513
:1009F0004D815E816F817885181684F01D861E8674
:100A00001F86188A882799278E1B9F0B04C076950E
:100A10006795579547958A95D2F728C0202F332799
:100A200027FD3095DB01CA01022E04C0B695A795BB
:100A3000979587950A94D2F78D879E87AF87B88B55
:100A400004C0440F551F661F771FEA95D2F78981AE
:100A50009A81AB81BC8104C0B695A795979587957F
:100A60002A95D2F7482B592B6A2B7B2B49875A871B
:100A70006B877C8729853A854B855C856D857E856E
:100A8000AF8598898A2F60960FB6F894DEBF0FBEA7
:100A9000CDBFCF91DF910F91FF90EF900895629FAE
:100AA000D001739FF001829FE00DF11D649FE00D66
:100AB000F11D929FF00D839FF00D749FF00D659FC7
:100AC000F00D9927729FB00DE11DF91F639FB00DC6
:100AD000E11DF91FBD01CF0111240895AA1BBB1B05
:100AE00051E107C0AA1FBB1FA617B70710F0A61B2E
:100AF000B70B881F991F5A95A9F780959095BC014F
:100B0000CD01089597FB092E07260AD077FD04D062
:100B1000E5DF06D000201AF4709561957F4F0895A7
:100B2000F6F7909581959F4F0895A1E21A2EAA1B82
:100B3000BB1BFD010DC0AA1FBB1FEE1FFF1FA2178D
:100B4000B307E407F50720F0A21BB30BE40BF50B8A
:100B5000661F771F881F991F1A9469F76095709513
:100B6000809590959B01AC01BD01CF010895F8944B
:020B7000FFCFB5
:020B7200FFFF83
:04000003000008B839
:00000001FF
